:020000040800F2
:100000007004002049010008510100085301000854
:1000100055010008570100085901000800000000C0
:100020000000000000000000000000005B0100086C
:100030005D010008000000005F0100086101000888
:100040006301000863010008630100086301000800
:1000500063010008630100086301000863010008F0
:1000600063010008630100086301000863010008E0
:1000700063010008630100086301000863010008D0
:1000800063010008630100086301000863010008C0
:100090006301000863010008630100080902000809
:1000A00063010008630100086301000863010008A0
:1000B0006301000863010008630100086301000890
:1000C0006301000863010008630100086301000880
:1000D000630100082D0500086301000863010008A2
:1000E0006301000863010008630100086301000860
:1000F0006301000863010008630100086301000850
:10010000630100086301000863010008630100083F
:10011000630100086301000863010008630100082F
:10012000630100086301000863010008630100081F
:10013000DFF810D000F030F800480047A5070008AD
:10014000AFF300807004002006488047064800474F
:10015000FEE7FEE7FEE7FEE7FEE7FEE7FEE7FEE777
:10016000FEE7FEE7DD0400083101000830B50B466C
:10017000014600202022012409E021FA02F59D42D7
:1001800005D303FA02F5491B04FA02F52844151EAB
:10019000A2F10102F1DC30BD064C074D06E0E0683B
:1001A00040F0010394E8070098471034AC42F6D3BE
:1001B000FFF7C2FFC8070008E807000800B50246BD
:1001C0004FF47A7302E0184600F004F8521E92B21F
:1001D000F9D200BD00EBC000C1004FF0E02041614A
:1001E000016941F004010161016921F0020101612D
:1001F000016941F0010101610169C903FCD501698F
:1002000021F001010161704710B50B4801688905B3
:1002100010D5016841F4007101600520FFF7CEFFA1
:1002200006480068800505D5BDE8104040F203107F
:1002300000F0C0B810BD000014040140081C0140CB
:100240001448816941F00801816113490A6842F448
:1002500070620A600A6842F470420A60C16941F43F
:100260008001C1610D48018841F0240101800B48E3
:100270001830018841F0B4010180001D018841F06F
:10028000250101800548001F018841F0010101801E
:100290007047000000100240040C01400458004068
:1002A0004FF6FF710A4A01E0491E89B213885B06C6
:1002B00001D40029F8D1002902D00649098801702B
:1002C00002D14FF0010070474FF00000704700006E
:1002D00014580040105800400A4908804FF6FF703B
:1002E000091D01E0401E80B20A88920701D400284F
:1002F000F8D104490831098808B10020704701206D
:1003000070470000105800404FF6FF71084A01E0A6
:10031000491E89B213881B0601D40029F8D1044A6A
:10032000121F108009B100207047012070470000A3
:10033000145800400248018821F480610180704710
:10034000005800404FF6FF70094901E0401E80B29E
:100350000A88520701D40028F8D1054914390A88BF
:1003600042F400720A8008B10020704701207047F3
:10037000145800400248018841F400710180704720
:10038000005800400A48018841F4807101804FF60E
:10039000FF700749143101E0401E80B20A88D2077D
:1003A00001D10028F8D108B1002070470120704722
:1003B0000058004002490A6842400A607047000045
:1003C0000C080140FFF73CBF38B50446FFF7DAFFE1
:1003D000A020FFF781FF2046FFF796FFFFF7D2FF2F
:1003E000A120FFF779FFFFF7A5FFFFF7C3FF00206C
:1003F00000906846FFF754FF9DF8000038BD70B5C7
:1004000005460C46FFF7BEFFA020FFF765FF284614
:10041000FFF77AFF2046FFF777FFFFF793FFBDE86E
:1004200070400520FFF7CABEAFF300800CB5002274
:10043000019200922748016841F4803101604FF435
:10044000A063016801F4003100910199491C0191F8
:10045000009911B901999942F3D10168890302D534
:100460000121009100E000920099012930D11A4940
:100470000A6842F010020A600A6822F007020A6065
:100480000A6842F002020A604168416041684160C6
:10049000416841F480614160416821F47C11416010
:1004A000416841F4E8114160016841F080710160E8
:1004B00001688901FCD5416821F003014160416870
:1004C00041F0020141604168C1F381010229FAD182
:1004D0000CBD0000001002400020024010B50F4883
:1004E000016841F00101016041680D4A114041601D
:1004F00001680C4A11400160016821F4802101600B
:10050000416821F4FE0141604FF41F018160FFF753
:100510008BFF05494FF00060086010BD00100240DD
:100520000000FFF8FFFFF6FE08ED00E030B50A4CD2
:1005300020880A4A800604F1040305D51D88107836
:10054000411C117006490D542088C00602D5188838
:100550000120507030BD0000003801400000002034
:10056000080000201E49886940F0040088611D4889
:10057000026842F030020260026842F080020260CB
:10058000026822F040020260026822F40062026007
:10059000026842F480620260026822F440720260E3
:1005A000886940F4804088610F48018841F4005117
:1005B0000180018821F480510180011D0A8822F404
:1005C00040520A80021F40F271211180018841F0DF
:1005D00008010180018841F004010180704700009A
:1005E00000100240040801400C38014003490A8809
:1005F0001206FCD50149091D0880704700380140EA
:100600000FB4054B10B503A9044A029800F018F87E
:1006100010BC5DF814FB00009507000804000020E2
:1006200002E008C8121F08C1002AFAD170477047BB
:10063000002001E001C1121F002AFBD17047000019
:100640002DE9FF4F89B09B460446002506E025288A
:100650000BD05A460B999047641C6D1C20780028DB
:10066000F5D10DB02846BDE8F08F0027B84601222D
:10067000474900E0074314F8013F203B02FA03F02A
:100680000842F7D120782E2819D114F8010F47F02D
:1006900004072A280ED06FF02F022078A0F1300135
:1006A00009290CD808EB880102EB410100EB010895
:1006B000641CF2E70A98641C50F8048B0A902078B6
:1006C0000028CED0642808D0692806D075281ED00E
:1006D0005A460B9990476D1C58E00A994FF00A0949
:1006E00001C90A91002802DA40422D2102E03905B1
:1006F00004D52B218DF82010012103E0F90704D047
:100700002021F7E78A4608AE0DE00021FAE70A99B2
:100710004FF00A0901C90A91F7E74946FFF726FD9C
:10072000303106F8011D0028F7D1ADEB060000F1CD
:100730002009780701D44FF00108C84502DDA8EB75
:10074000090000E000208046002706E008A85A467D
:10075000C05D0B9990476D1C7F1C5745F6DB04E08C
:1007600030205A460B9990476D1CB8F10001A8F152
:100770000108F5DC05E016F8010B5A460B99904785
:100780006D1CB9F10001A9F10109F4DC641C65E7F5
:100790000928010000B50346D8B2FFF727FF184625
:1007A00000BD0000FFF7DEFEFFF70CFE6221002017
:1007B000FFF725FE0020FFF707FE014601A0FFF727
:1007C0001FFFFEE725640000E80700080000002086
:1007D0000800000020060008F007000808000020BC
:1007E000680400003006000800000000000000005F
:0400000508000131BD
:00000001FF
