:020000040800F2
:100000007004002049010008510100085301000854
:1000100055010008570100085901000800000000C0
:100020000000000000000000000000005B0100086C
:100030005D010008000000005F01000821050008C4
:100040006301000863010008630100086301000800
:1000500063010008630100086301000863010008F0
:1000600063010008630100086301000863010008E0
:1000700063010008630100086301000863010008D0
:1000800063010008630100086301000863010008C0
:1000900063010008630100086301000819020008F9
:1000A00063010008630100086301000863010008A0
:1000B00063010008630100084D06000863010008A1
:1000C0006301000863010008630100086301000880
:1000D0006301000895060008630100086301000839
:1000E000DD010008630100086301000863010008E6
:1000F0006301000863010008630100086301000850
:10010000630100086301000863010008630100083F
:100110006301000863010008650600086301000828
:10012000630100086301000863010008630100081F
:10013000DFF810D000F01AF80048004783070008E5
:10014000AFF300807004002006488047064800474F
:10015000FEE7FEE7FEE7FEE7FEE7FEE7FEE7FEE777
:10016000FEE7FEE75D05000831010008064C074D7B
:1001700006E0E06840F0010394E807009847103477
:10018000AC42F6D3FFF7D8FF8C070008AC07000895
:1001900000B502464FF47A7302E0184600F004F806
:1001A000521E92B2F9D200BD00EBC000C1004FF068
:1001B000E0204161016941F004010161016921F020
:1001C00002010161016941F0010101610169C90395
:1001D000FCD5016921F001010161704710B50B48A0
:1001E0000168090510D5016841F40061016005202E
:1001F000FFF7CEFF06480068000505D405480178E2
:10020000491E01700121417010BD0000140401401D
:10021000081C01400400002070B5134C2068134DE9
:1002200080050CD5206840F4007020600520FFF7A1
:10023000AFFF2868800502D5022000F0E1F82068B1
:1002400000060FD5206840F0800020600520FFF7F1
:100250009FFF2868000605D505480178491C0170F4
:100260000121417070BD000014040140081C0140D0
:100270000400002010B51C49886940F080008861A6
:100280001A48026842F000420260026822F080428E
:100290000260026822F04052026014480C3002688A
:1002A00022F080020260886940F0010088611048F5
:1002B000C16841F4A041C1600E48016841F080016D
:1002C00001600C480838016841F08001016003209A
:1002D00000F0BAF80221172000F0A5F8BDE81040A0
:1002E000172000F095B8000000100240001C0140EB
:1002F000000001400804014010B51C49886940F025
:10030000800088611A48026842F080020260026838
:1003100022F040020260026822F0300202601448BB
:100320000830026822F400720260886940F001001F
:1003300088611048016941F0500101610E4801686F
:1003400041F4007101600C480838016841F4007103
:100350000160032000F078F80221172000F063F814
:10036000BDE81040172000F053B800000010024014
:10037000041C0140000001400804014010B51C4964
:10038000886940F0800088611A48026842F400429F
:100390000260026822F480420260026822F4405245
:1003A000026014480830026842F400620260886902
:1003B00040F0010088611048016941F4A0410161E9
:1003C0000E48016841F4006101600C480C38016876
:1003D00041F400610160032000F036F8022128207A
:1003E00000F021F8BDE81040282000F011B800000E
:1003F00000100240041C0140000001400C040140B8
:1004000002490A6842400A60704700000C08014037
:1004100000F01F02012191404009800000F1E0201E
:10042000C0F8001170470907090E002806DA00F02D
:100430000F0000F1E02080F8141D704700F1E0206B
:1004400080F800147047000000F00701054A1068AA
:100450004FF6FF03184040EA0120034908431060AB
:10046000704700000CED00E00000FA05AFF30080DB
:100470000CB50022019200922748016841F48031B6
:1004800001604FF4A063016801F40031009101990B
:10049000491C0191009911B901999942F3D1016860
:1004A000890302D50121009100E000920099012901
:1004B00030D11A490A6842F010020A600A6822F034
:1004C00007020A600A6842F002020A60416841605D
:1004D00041684160416841F480614160416821F4B4
:1004E0007C114160416841F4E8114160016841F0CC
:1004F0008071016001688901FCD5416821F0030128
:100500004160416841F0020141604168C1F38101ED
:100510000229FAD10CBD0000001002400020024068
:1005200010B5084C2088401C80B22080B0F57A7F3E
:1005300007D105A000F0D4F80220FFF761FF0020EA
:10054000208010BD020000205379735469636B2032
:10055000496E7465727275707409000010B50F48A9
:10056000016841F00101016041680D4A114041609C
:1005700001680C4A11400160016821F4802101608A
:10058000416821F4FE0141604FF41F018160FFF7D3
:100590006DFF05494FF00060086010BD001002407B
:1005A0000000FFF8FFFFF6FE08ED00E0214881693A
:1005B00041F008018161C16941F00201C1611E4839
:1005C000016841F003010160016841F00801016028
:1005D000016821F004010160184941F61F400880BC
:1005E0000920091D088015492839088800F01000E5
:1005F000088012480C38028822F003020280028828
:1006000042F060020280028822F010020280001D87
:10061000028822F400720280028842F48072028012
:10062000064A002014321080088840F0010008803B
:100630007047000000100240000C014028040040F8
:1006400001490880704700003C04004004480188CC
:1006500021F0020101800249002014310880704716
:100660001008004010B506A000F03AF80848018ACA
:1006700021F001010182BDE810408015FFF7C0BEE6
:1006800054494D3620496E74657272757074090054
:100690000010004030B50A4C20880A4A800604F158
:1006A000040305D51D881078411C117006490D54AE
:1006B0002088C00602D518880120507030BD000087
:1006C00000380140000000200C00002003490A8887
:1006D0001206FCD50149091D088070470038014009
:1006E000014A024900F013B8310700080800002051
:1006F00002E008C8121F08C1002AFAD170477047EB
:10070000002001E001C1121F002AFBD170472DE932
:10071000F04116460F460446002503E03946B0472F
:10072000641C6D1C20780028F8D12846BDE8F081B3
:1007300000B50346D8B2FFF7C9FF184600BD000058
:1007400010B5094C607801280BD120780A2803D90C
:100750000B2807D0002020702078FFF771FF0020C1
:10076000607010BD0A20F6E70400002010B5FFF706
:100770001DFFFFF7C1FDFFF77DFDBDE81040FFF74E
:10078000FDBDFFF7F3FFFFF7DBFFFCE7AC07000859
:10079000000000200C000000F0060008B807000868
:1007A0000C000020640400000007000800000000A6
:0807B000000000000000000041
:0400000508000131BD
:00000001FF
