:020000040800F2
:10000000C0050020490100089F180008AF1500082E
:100010009D180008B5010008D71F00080000000067
:10002000000000000000000000000000A31800080D
:10003000EF01000800000000A1180008A518000842
:100040006301000863010008630100086301000800
:1000500063010008630100086301000863010008F0
:1000600063010008630100086301000863010008E0
:10007000630100086301000863010008B90100087A
:1000800063010008630100086301000863010008C0
:1000900063010008630100086301000863010008B0
:1000A00063010008630100086301000863010008A0
:1000B0006301000863010008630100086301000890
:1000C0006301000863010008630100086301000880
:1000D0006301000863010008630100086301000870
:1000E0006301000863010008630100086301000860
:1000F0006301000863010008630100086301000850
:10010000630100086301000863010008630100083F
:10011000630100086301000863010008630100082F
:10012000630100086301000863010008630100081F
:10013000DFF810D000F02CF8004800472521000817
:10014000AFF30080C00500200648804706480047FE
:10015000FEE7FEE7FEE7FEE7FEE7FEE7FEE7FEE777
:10016000FEE7FEE70719000831010008D2B201E0FE
:1001700000F8012B491EFBD270470022F6E710B5AC
:1001800013460A4604461946FFF7F0FF204610BD05
:10019000064C074D06E0E06840F0010394E80700D4
:1001A00098471034AC42F6D3FFF7C6FFA4210008ED
:1001B000C4210008FEE70000014800F01BB8000061
:1001C0007C01002030B590F840500124AC40C56B54
:1001D0006C60046863604368102B036803D0996007
:1001E0000068C26030BD9A600068C16030BD704771
:1001F00072B6FEE72DE9F05FC16B0A6801680B6813
:10020000046C4FF0040808FA04F8844D844E854FBE
:10021000DFF814C2DFF81492DFF814A2DFF814B28A
:10022000DFF814E218EA020F65D05FEA437862D57E
:100230000A68920603D40A6822F004020A60DFF812
:10024000F0814FF48062016808F114081301140270
:10025000414524D9A9420DD0B1420FD0B9421AD09C
:10026000614515D0494515D0514501D1120312E021
:10027000594501D104220EE0714501D140220AE026
:100280006D4D1435A94206D06B4A2832914201D1F6
:100290001A4600E022466749091F0A6029E0A94280
:1002A00013D0B14215D0B94220D061451BD0494589
:1002B0001BD0514502D14FF4800217E0414502D1D5
:1002C0004FF0806212E0594501D104220EE07145E1
:1002D00001D140220AE0584D1435A94206D0564AB1
:1002E0002832914201D11A4600E022464B49083992
:1002F0004A60C16A71E04FF0020808FA04F818EA8F
:10030000020F70D05FEA83786DD50A68920606D432
:100310000A6822F00A020A60012180F82110DFF841
:1003200010814FF40072016808F1140813011402DF
:10033000414524D9A9420DD0B1420FD0B9421AD0BB
:10034000614515D0494515D0514501D1120312E040
:10035000594501D102220EE0714501D120220AE067
:10036000354D1435A94206D0334A2832914201D185
:100370001A4600E022462F49091F0A6029E0A942D7
:1003800013D0B14215D0B94220D061451BD04945A8
:100390001BD0514502D14FF4001217E0414502D164
:1003A0004FF0007212E0594501D102220EE0714572
:1003B00001D120220AE0204D1435A94206D01E4A60
:1003C0002832914201D11A4600E0224613490839E9
:1003D0004A60002180F82010816A00291CD0BDE805
:1003E000F05F0847FFE70825A540154214D01A071B
:1003F00012D50A6822F00E020A6090F84020C36B02
:10040000012101FA02F25A60816380F82110002173
:1004100080F82010016BE0E7BDE8F09F0800024083
:100420001C000240300002404400024058000240DC
:100430006C000240080402401C04024030B560B168
:100440001A4B026814219A4209D2194B1344B3FB88
:10045000F1F18900016417490AE0012030BD134B16
:100460005B421344B3FBF1F1890001640F49083981
:10047000C163022180F82110136843F6F0718B43A9
:10048000F0E901142143D0E902452C4321430469DA
:1004900021434469214384692143194311600021A8
:1004A0004163012242770177084630BD08040240CB
:1004B000F8FFFDBF0000024070B5044690F8200030
:1004C000002501280CD0012084F8200094F8216038
:1004D0000020012E06D084F820000225284670BD99
:1004E000022070BD022684F82160A063206806689F
:1004F00026F0010606602046FFF764FEE06A002849
:100500002068016802D041F00E0106E021F00401EC
:1005100001602068016841F00A01016020680168FB
:1005200041F001010160D9E72DE9F84FDFF8C891EA
:100530000024A9F1040B23460F2709F1040AABF1AB
:10054000040ED1E00125A54006EA0502AA4276D1B3
:10055000DFF8A8C14E68A6EB0C0866452BD00DDC71
:10056000032E34D005DC36B3012E19D0022E2FD144
:100570001BE0112E16D0122E2AD119E0B8F5881FD3
:1005800019D006DCB8F5803F15D0B8F5801F1FD113
:1005900011E0B8F5001F0ED0B8F5041F18D10AE01D
:1005A000CB6815E0CB681B1D12E0CB6808330FE069
:1005B000CB680C330CE08B682BB1012B4FF0080398
:1005C00003D0456104E0042302E0056100E000235C
:1005D000FF2A01D8064601E000F104064FEA84052F
:1005E00001D9A5F12005D6F8008007FA05FC28EA14
:1005F0000C0803FA05F548EA0508C6F800804D68BE
:10060000ED0070D53E4DAE6946F00106AE61AD69B4
:1006100024F0030605F0010500953A4D06EB050CA4
:10062000DCF80850A607360F07FA06F825EA080591
:10063000DFF8D480404503D14FF0000825E052E0B8
:10064000DFF8C880404502D14FF001081DE0DFF817
:10065000C080404502D14FF0020816E0DFF8B480B8
:10066000404502D14FF003080FE0DFF8AC80404571
:1006700002D14FF0040808E0DFF8A080404502D125
:100680004FF0050801E04FF0060808FA06F848EABE
:100690000508CCF808804D68D9F80060ED024D4699
:1006A00001D5164300E096432E604D68DAF80060ED
:1006B000AD02554601D5164300E096432E604D68C5
:1006C000DBF80060AD035D4601D5164300E09643BC
:1006D0002E604D68DEF80060ED03754601D51643C7
:1006E00000E096432E60641C0A681646E2407FF4E0
:1006F00029AFBDE8F88F0000080401400000111088
:10070000001002400000014000080140000C0140C0
:10071000001001400014014000180140001C01407D
:10072000014880687047000004000020024881688A
:10073000027811448160704704000020074810B51A
:10074000016841F010010160032000F075F80F20EE
:1007500000F006F800F024F8002010BD0020024050
:1007600070B50D4D04464FF47A712878B1FBF0F066
:100770000A490968B1FBF0F000F0DCFA48B9102C26
:1007800007D200222146501E00F036F800206C608F
:1007900070BD012070BD000004000020100000208A
:1007A0000C4808B5816941F001018161816901F05E
:1007B00001010091C16941F08051C161C06900F03F
:1007C000805000900448416821F0E06141F00071E0
:1007D000416008BD0010024000000140002809DB14
:1007E00000F01F02012191404009800000F1E0204B
:1007F000C0F8001170470000F0B40E4B1B680C46A7
:10080000C3F30223C3F10705042D00D90425191DE4
:10081000072901D2002300E0DB1E012606FA05F1BC
:10082000491E214099409E40761E16403143F0BC3F
:1008300001F0E2BB0CED00E0064900F00702086899
:100840004FF6FF03184040EA0220034A10430860B5
:10085000704700000CED00E00000FA052DE9F047BC
:100860000F46050061D0434E306800F00700B842E3
:1008700009D2306820F0070038433060306800F05B
:100880000700B84251D128683B4C810712D5400778
:1008900003D5606840F4E06060602878000703D505
:1008A000606840F4605060606068A96820F0F00003
:1008B000084360602878C00728D06868012810D0F5
:1008C0002168022810D0890700292EDA616821F0FA
:1008D000030101436160FFF723FF804641F288393D
:1008E0000DE021688903EFE78901EDE7FFF718FFC5
:1008F000A0EB0801494502D90320BDE8F0876068F4
:10090000696800F00C00B0EB810FEFD1306800F0A7
:100910000700B8420BD9306820F007003843306038
:10092000306800F00700B84201D00120E5E72878E0
:10093000400705D56068E96820F4E060084360601E
:100940002878000706D56068296920F4605040EADD
:10095000C100606000F038F86168084AC1F3031113
:10096000515CC8400649086006480068FFF7F8FE79
:100970000020C2E700200240001002408A21000847
:10098000100000200800002004480549006849685C
:10099000044AC1F30221515CC84070471000002096
:1009A000001002409A21000804480549006849687F
:1009B000044AC1F3C221515CC840704710000020B6
:1009C000001002409A2100080E4A51680E4801F0BA
:1009D0000C03042B11D0082B0FD10C48C1F3834317
:1009E000C903C05C0AD55168084AC1F34041921E50
:1009F000515C054A5043B0FBF1F07047044948434D
:100A0000704700000010024000127A007A210008AE
:100A100000093D002DE9F84F040070D02078C04D4A
:100A2000C00749D06868C0F38100012807D0686812
:100A3000C0F38100022809D16868C00306D5286880
:100A4000800339D560680028E7D035E06068B0F5EC
:100A5000803F0BD010B1B0F5A02F11D0286820F442
:100A600080302860286820F4802002E0286840F464
:100A700080302860606890B1FFF752FE06460AE0B9
:100A8000286840F480202860F0E700BFFFF748FEA8
:100A9000801B642873D828688003F7D50CE0FFF723
:100AA0003FFE064605E000BFFFF73AFE801B6428C4
:100AB000F0D828688003F7D420789A4E80074FF04A
:100AC00001094FF0000839D5686810F00C0F07D005
:100AD0006868C0F38100022809D16868C00306D4A1
:100AE0002868800714D52069012808D110E0206902
:100AF000B0B1C6F80090FFF713FE074605E00AE123
:100B0000FFF70EFEC01B0228C4D828688007F7D55F
:100B10002868616920F0F80040EAC10028600DE013
:100B2000C6F80080FFF7FCFD074604E0FFF7F8FD7C
:100B3000C01B022823D828688007F7D42078000734
:100B40002CD57948A169D9B1C0F80090FFF7E8FD2C
:100B5000074604E0FFF7E4FDC01B02280FD8686ACF
:100B60008007F7D571484FF4FA510068B0FBF1F0F7
:100B7000009000BF0098411E0091FAD20EE080E084
:100B8000C0F80080FFF7CCFD074604E0FFF7C8FD82
:100B9000C01B022875D8686A8007F7D42078400700
:100BA00060D5E8690027C00008D4E86940F08050AB
:100BB000E861E869012700F0805000905C48016816
:100BC000C90513D40168834641F480710160FFF7C1
:100BD000A7FD824606E000BFFFF7A2FDA0EB0A00DA
:100BE00064284ED8DBF80000C005F5D5E068012880
:100BF0000AD008B1052813D0286A20F00100286225
:100C0000286A20F0040002E0286A40F0010028620F
:100C1000E06841F2883B98B1FFF782FD82460BE025
:100C2000286A40F004002862EEE700BFFFF778FD75
:100C3000A0EB0A0159455AD8286A8007F6D50CE07E
:100C4000FFF76EFD824605E0FFF76AFDA0EB0A01A3
:100C500059454CD8286A8007F6D41FB1E86920F0BE
:100C60008050E861E06988B36968C1F381010229B5
:100C700044D00228C6F8608004D0FFF751FD044636
:100C800038E034E0FFF74CFD074604E0FFF748FD8D
:100C9000C01B02282BD828688001F7D4206AB0F541
:100CA000803F05D16868A16820F40030084368607F
:100CB000D4E908010843696821F4741108436860A5
:100CC000C6F86090FFF72CFD044606E025E000BF63
:100CD000FFF726FD001B022809D828688001F7D5F8
:100CE0001BE000BFFFF71CFD001B022802D90320F8
:100CF000BDE8F88F28688001F4D40EE00128F7D011
:100D00006868226A00F48031914204D1616A00F47B
:100D10007010884201D00120EAE70020E8E70000D7
:100D200000100240000042428004424210000020B5
:100D30000070004010B5401EB0F1807F01D301204B
:100D400010BD4FF0E02460610F21601701F054F9ED
:100D50000020A06107202061002010BD10B590F890
:100D60003C20012A22D0012280F83C20CA688C68ED
:100D700022F4407222434C6822F4806222430C68C1
:100D800022F4006222430C6922F4805222434C690F
:100D900022F400522243C969002322F480420A430C
:100DA00001684A6480F83C30002010BD022010BD6C
:100DB00070B590F83C20012A2CD0012480F83C40EA
:100DC000022280F83D2003685A689D6822F0700670
:100DD0000A6832435A60104B02689A420ED00F4B99
:100DE0009A420BD0B2F1804F08D00D4B9A4205D0F9
:100DF0000C4B9A4202D00C4B9A4204D1496825F020
:100E000080031943916080F83D40002180F83C1038
:100E1000084670BD022070BD002C01400034014026
:100E20000004004000080040000C004010B5040021
:100E300003D094F83D0010B107E0012010BD002060
:100E400084F83C00204600F01FF8022084F83D00A2
:100E5000211D206800F058FD012084F8460084F828
:100E60003E0084F83F0084F8400084F8410084F894
:100E7000420084F8430084F8440084F8450084F874
:100E80003D00002010BD000000B585B0002100919C
:100E90000191029103911A4A01681A48914207D1BF
:100EA000816941F400618161806900F4006024E09F
:100EB000154A914217D1C16941F00401C161C1696C
:100EC00001F004010491816941F0080181618069A8
:100ED000694600F008000490402000900B48FFF79E
:100EE00023FB05B000BD0A4A9142FAD1C16941F025
:100EF0000801C161C06900F008000490F1E700003A
:100F0000002C01400010024000080040000C01408D
:100F1000000C004070B5044690F83C000025012804
:100F200017D0012684F83C60022084F83D00206838
:100F3000826822F0770222F47F428260086850289B
:100F400038D00DDC20284FD005DC90B3102811D10B
:100F50004AE0022070BD302846D040280AD13BE04C
:100F600060282FD070280DD0B0F5805F03D0B0F589
:100F7000005F12D0012584F83D60002084F83C0019
:100F8000284670BDCB68D1E90121206800F00AFD38
:100F90002068816841F0770109E0CB68D1E901213F
:100FA000206800F0FFFC2068816841F48041816086
:100FB000E1E719E0CA684968206800F00DFE502199
:100FC000206806E0CA684968206800F04DFE60218C
:100FD000206800F0F1FCCEE7CA684968206800F09C
:100FE000FBFD40212068F4E7226801461046F0E747
:100FF0002DE9F041054690F83C0000260C460128FA
:1010000010D0012085F83C0072B1042A1CD0082AB7
:101010002CD00C2A50D00126002085F83C00304608
:10102000BDE8F0810220FBE7D4E90012E3682868FC
:1010300000F0E4FD2868816921F00C0181612868D5
:101040008169A26811430FE0D4E90012E3682868BF
:1010500000F01CFE2868816921F4406181612868E4
:101060008169A26841EA02218161D5E72868D4E953
:10107000002C277B036A016A21F480710162C16937
:1010800023F4007321F0030141EA0C0121F0F00C7C
:1010900039074FF400774CEA116107EA02221A433C
:1010A000C16102622868C16921F00C01C161286830
:1010B000C169A26811432BE02868D4E90021E768E0
:1010C000036AD0F820C02CF4805CC0F820C0D0F8AF
:1010D0001CC023F400532CF4407C4CEA012121F481
:1010E000704C4FF6FF7101EA07314FF4005741EAA7
:1010F0000C0107EA02321A43C16102622868C16921
:1011000021F44061C1612868C169A26841EA0221F5
:10111000C16181E710B5040003D094F83D0010B11F
:1011200007E0012010BD002084F83C00204600F0BC
:101130001EF8022084F83D00211D206800F0E4FB29
:10114000012084F8460084F83E0084F83F0084F8CB
:10115000400084F8410084F8420084F8430084F899
:10116000440084F8450084F83D00002010BD70471D
:1011700010B586B000210091019102910391134CAA
:101180000368134902221348A3420CD18B6943F030
:1011900004038B618969039201F0040104918115B4
:1011A000CDE900120DE00C4CA3420DD18B6943F048
:1011B00004038B618969009201F004010192CDE979
:1011C00003216946FFF7B0F906B010BD002C0140BD
:1011D0000010024000080140000C004070B50D46B0
:1011E000040003D094F83D0010B107E0012070BD69
:1011F000002084F83C00204600F01BF8022084F810
:101200003D00211D206800F07FFB2068016821F06F
:101210000801016054F8460B016829430160012070
:1012200004F81F09E0752076E0762077A07500208D
:1012300070BD704770B5044690F83C0000260D461E
:1012400001280FD0012084F83C006AB1042A1DD087
:10125000082A2FD00C2A3FD00126002084F83C0019
:10126000304670BD022070BD206800F0ADFB2068E4
:10127000816941F0080181612068816921F00401E0
:101280008161206881692A69114311E0206800F0BA
:10129000CBFB2068816941F400618161206881692C
:1012A00021F480618161206881692A6941EA022113
:1012B0008161D2E7206800F0EDFB2068C16941F050
:1012C0000801C1612068C16921F00401C161206881
:1012D000C1692A69114311E0206800F00FFC206801
:1012E000C16941F40061C1612068C16921F4806174
:1012F000C1612068C1692A6941EA0221C161ACE784
:1013000010B5040003D094F83D0010B107E00120AF
:1013100010BD002084F83C00204600F01EF802209A
:1013200084F83D00211D206800F0EEFA012084F8C9
:10133000460084F83E0084F83F0084F8400084F8BA
:10134000410084F8420084F8430084F8440084F8A3
:10135000450084F83D00002010BD704770B504467C
:1013600090F83C00012812D0012584F83C5002205E
:1013700084F83D00204600F0E9FB01004FF000003A
:1013800007D084F83D5084F83C00012070BD022055
:1013900070BD2168CA6822F04002CA602168CA682C
:1013A00022F48042CA6084F83D5084F83C0000205A
:1013B00070BD7047704770B5040004D094F84100C8
:1013C000002510B106E0012070BD84F84050204691
:1013D00000F024F8242084F841002068C16821F43A
:1013E0000051C160204600F019FD2068016921F418
:1013F000904101612068416921F02A014161206822
:10140000C16841F40051C1606564202084F8410046
:1014100084F842006563002070BD0000F0B585B01F
:10142000002406460094019402940394006828491D
:1014300088424BD12748816941F4804181618169AB
:1014400001F480410491816941F004018161806966
:10145000214D00F0040004904FF400700090022031
:1014600001900320039069462846FFF75DF8281590
:10147000CDE90004694628460294FFF755F8184D57
:101480001648802701C5102091C5154845F8104918
:101490006C61AC61EC61FEF7D1FF08B1FEF7A8FE0C
:1014A000B5636E620E4D0D4844351430C5E9000435
:1014B000C5E902472C616C61AC612846EC61FEF71E
:1014C000BDFF08B1FEF794FEF5636E6205B0F0BD96
:1014D0000038014000100240000801404400024072
:1014E0003801002090F84230202B01D002207047B4
:1014F00021B11AB10023036300F0ECBC0120704756
:1015000001490120087070470000002070472DE954
:10151000F843044690F84100984616460D462028A8
:1015200002D00220BDE8F88385B17EB1002060645E
:10153000212084F84100FFF7F3F8A6848146E68471
:10154000A0682027B0F5805F02D003E00120E9E722
:10155000206910B12E4600250EE000260CE0802107
:10156000204600F0FFFCA8B9C6B116F8010B2168AF
:101570004860E08C401EE084E08C4B464FF0000257
:10158000CDF800800028EAD14FF04001204600F05D
:10159000E9FC40B184F841700320C3E735F8020B41
:1015A000C0F30800E3E784F841700020BAE7FEE7E3
:1015B000094808B5416941F00101416140690022D3
:1015C00000F00100009011460F20FFF715F9BDE86B
:1015D00008400F20FFF702B9001002400D4808B57F
:1015E000816941F010018161816901F01001009170
:1015F000816941F004018161816901F00401009178
:10160000816941F008018161806900F00800009063
:1016100008BD00000010024010B596B000240F94E1
:1016200010941194129413941C2108A81494FEF79A
:10163000A4FD20216846FEF7A0FD2F482D4901603A
:1016400041F61F41C0E9011441F28731C0E903149A
:101650000421C0E90514FFF7E9FB08B1FEF7C8FD56
:101660004FF480500F900FA92348FFF753FC08B1A7
:10167000FEF7BEFD2048FFF743FE08B1FEF7B8FDB8
:1016800008211D48FFF7AAFD08B1FEF7B1FD13942C
:1016900013A919481494FFF78BFB08B1FEF7A8FDB6
:1016A0006020089040F6C410CDE909044FF4807022
:1016B000CDE90C400B94002208A90F480E94FFF7C7
:1016C000B9FD08B1FEF794FD00944FF40050CDE948
:1016D0000440029401940394694607480794FFF775
:1016E0003DFB08B1FEF784FD0348FFF741FD16B04E
:1016F00010BD0000002C01401800002010B590B073
:10170000002409940A940B94142104A80C94FEF765
:1017100034FD2C480D940E940094019402942849B1
:10172000039401604721C0E901144FF6FF71C0E93D
:1017300003148461FFF77AFB08B1FEF759FD4FF4FB
:101740008050099009A91F48FFF7E4FB08B1FEF794
:101750004FFD1C48FFF7DEFC08B1FEF749FD0420F1
:1017600004905020CDE9050404A916480894FFF719
:10177000F5FD08B1FEF73CFD0D940DA911480E943E
:10178000FFF716FB08B1FEF733FD0120CDE900405D
:101790000294002269460B480394FFF729FC08B124
:1017A000FEF726FD022000900190042269460548BC
:1017B000FFF71EFC002801D0FEF71AFD10B010BD87
:1017C000000800406000002010B58EB0002407948F
:1017D000089409940A940B941C2168460C94FEF713
:1017E000CCFC1F481D49016041F61F41C0E90114AE
:1017F0006321C0E903148461FFF718FB08B1FEF709
:10180000F7FC4FF48050079007A91548FFF782FBBB
:1018100008B1FEF7EDFC1248FFF772FD08B1FEF7C4
:10182000E7FC0B940BA90E480C94FFF7C1FA08B122
:10183000FEF7DEFC60200090322001900220029032
:101840000422694604940648FFF7F4FC08B1FEF749
:10185000CFFC0348FFF78CFC0EB010BD000C00401D
:10186000A80000200C4810B50A4901604FF4E1318E
:101870004160002181600C22C160C0E904128161D5
:10188000C161FFF798FD002803D0BDE81040FEF7C6
:10189000AFBC10BD00380140F0000020FEE7FEE7BD
:1018A00070477047FEF742BF30B58FB028216846B9
:1018B000FEF763FC14210AA8FEF75FFC012108046F
:1018C000CDE900100024029402250491CDE90750CF
:1018D0004FF4E01009906846FFF79CF808B172B623
:1018E000FEE70F20CDE90A054FF48060CDE90C40FA
:1018F00002210AA80E94FEF7B1FF002801D072B6AB
:10190000FEE70FB030BD7047F0B50268204C214DA6
:10191000214E224F224B4FF0804CA04209D09842DA
:1019200007D0604505D0A84203D0B04201D0B842EC
:1019300004D122F0700E4A6842EA0E02A04209D099
:10194000984207D0604505D0A84203D0B04201D0EC
:10195000B84203D122F44075CA682A434D6922F087
:1019600080022A4302608A68C2620A688262A042D8
:1019700001D0984201D109690163012141610169E6
:10198000C90703D0016921F001010161F0BD000028
:10199000002C01400004004000080040000C004002
:1019A0000034014010B5846842EA032224F47F44E5
:1019B0000A432243826010BD826822F070020A430B
:1019C00042F0070181607047F0B5036A026A22F0B5
:1019D0000102026242688469124E24F073050C68A9
:1019E0002C4323F002058B682B430D4DA84201D0F8
:1019F000B04205D123F00807CB683B4323F0040332
:101A0000A84201D0B04205D14D6922F4407215437D
:101A10008A692A4342608461496841630362F0BD78
:101A2000002C014000340140F0B5026A036A23F043
:101A300010030362436884690D6824F4E64444EAB1
:101A400005248D6822F0200242EA05120F4D104E47
:101A5000A84201D0B04206D1CF6822F0800242EA0B
:101A6000071222F04002A84201D0B04207D14D69CE
:101A700023F4406343EA85038D6943EA85034360A9
:101A80008461496881630262F0BD0000002C01405E
:101A900000340140F0B5026A036A23F480730362E4
:101AA0004368C46922F4007224F073050C68124E76
:101AB0002C438D6842EA05220E4DA84201D0B04267
:101AC00006D1CF6822F4006242EA072222F4806243
:101AD000A84201D0B04207D14D6923F4405343EAF4
:101AE00005138D6943EA05134360C4614968C16306
:101AF0000262F0BD002C01400034014030B5046AA0
:101B0000026A22F4805202624268C3690D6823F4BB
:101B1000E64343EA05238D6824F4005444EA05347F
:101B2000084DA84202D0084DA84204D14D6922F4C4
:101B3000804242EA85124260C361496801640462DE
:101B400030BD0000002C01400034014070B5036836
:101B500000249A6822F070054A682A4322F007059B
:101B60000A682A439A604A6812F00F0F31D11211A5
:101B7000082A2ED2DFE802F02E2E2E2E0B2127046B
:101B80000B69D1E902210068FFF70CFF22E00A6827
:101B9000052A10D00268136A156A25F0010515623E
:101BA00002689569096925F0F00545EA011191611E
:101BB000006803620EE0012070BD0A698968006850
:101BC00000F00AF806E00A698968006800F04CF83D
:101BD00000E00124204670BD10B5036A046A24F0B9
:101BE00001040462846924F0F00444EA021423F03E
:101BF0000A020A438461026210BD000070B5056AE2
:101C0000046A24F0010404628469124EB0420ED0CA
:101C1000114EB0420BD0B0F1804F08D00F4EB04201
:101C200005D00F4EB04202D00E4EB04203D124F088
:101C30000304144301E044F001041A0724F0F00403
:101C400044EA126225F00A0301F00A011943826195
:101C5000016270BD002C01400034014000040040CE
:101C600000080040000C004010B5036A046A24F02C
:101C700010040462846923F0A00324F4704444EA4D
:101C8000023243EA01118261016210BD30B5046A7B
:101C9000056A25F010050562856925F4407545EA59
:101CA000022222F470454FF6FF7202EA033224F05A
:101CB000A0032A43A02404EA0111194382610162AE
:101CC00030BD70B5446A2068406994F84110C0F393
:101CD000C0100025212904D118B1E584204600F068
:101CE0008EF82068406994F84210C0F380102229D1
:101CF00004D118B1E585204600F05AF8606C40F038
:101D0000100060642046FFF755FB70BD10B501461A
:101D1000406A096809684FF0000289062ED4C2851E
:101D200001680C3151E8003F23F4807341E800342E
:101D3000002CF5D10168143151E8003F23F0010374
:101D400041E80034002CF5D10168143151E8003F1E
:101D500023F0400341E80034002CF5D1202180F825
:101D60004210016B012909D101680C3151E8003F93
:101D700023F0100341E80034002CF5D14263016BDD
:101D8000012902D0FFF7BCFB10BD818DFFF711FBCD
:101D900010BD10B5406A01214163016B012902D0D9
:101DA000FFF7B4FB10BD818D4908FFF702FB10BDA2
:101DB00001680C3151E8002F22F4907241E80023B1
:101DC000002BF5D10168143151E8002F22F00102F7
:101DD00041E80023002BF5D1016B012909D10168ED
:101DE0000C3151E8002F22F0100241E80023002BB3
:101DF000F5D1202180F8421000210163704701686D
:101E00000C3151E8002F22F0C00241E80023002BE2
:101E1000F5D1202180F841107047000070B50446CC
:101E200000680169E26821F44051114301612169B0
:101E3000A0680843616908432168CA6841F20C63DD
:101E40009A430243CA6020684169A26921F4407143
:101E5000114341611E492068884202D1FEF7A4FD6A
:101E600001E0FEF791FD00EBC00101EB001260689C
:101E700064218000B2FBF0F3B3FBF1F36FF01806BE
:101E80007343B2FBF0F5B2FBF0F605EB83053223AA
:101E900003EB0515B5FBF1F5B6FBF1F605F0F00522
:101EA00005EB0615B2FBF0F6B2FBF0F0B0FBF1F07B
:101EB0006FF01802504306EB800003EB0010B0FBFC
:101EC000F1F0216800F00F002844886070BD000028
:101ED0000038014038B581620446828500201346EF
:101EE0006064222284F84220E56B1B4AAA62E56BFB
:101EF0001A4AEA62E56B1A4A2A63E26B50630A46A1
:101F00002168E06B091DFEF7D7FA20680168406878
:101F10000090206948B120680C3050E8001F41F45F
:101F2000807140E80012002AF5D12068143050E892
:101F3000001F41F0010140E80012002AF5D120689D
:101F4000143050E8001F41F0400140E80012002A20
:101F5000F5D1002038BD00000D1D0008931D0008BC
:101F6000C31C00082DE9F843984617460D46044661
:101F7000089E24E0701C22D0FEF7D2FBA0EB0800E4
:101F8000B0421AD8CEB12068C168490717D5802D54
:101F900015D0402D13D00168C94309070FD401683B
:101FA0000025406800902046FFF702FF082060648B
:101FB00084F840500120BDE8F8830320FBE7206847
:101FC000006835EA000004D00020B842D2D00020DA
:101FD000F1E70120F9E7FEE70FB4054B10B503A9BF
:101FE000044A029800F027F810BC5DF814FB0000CA
:101FF0000D210008140000200907090E002804DB49
:1020000000F1E02080F80014704700F00F0000F1AC
:10201000E02080F8141D704702E008C8121F08C1B4
:10202000002AFAD170477047002001E001C1121F59
:10203000002AFBD170472DE9F84F99469246884611
:102040000546002706E025280AD051464A46904713
:102050006D1C7F1C28780028F5D13846BDE8F88F24
:10206000002315F8011F18462E2915D115F8011F58
:1020700004232A290DD06FF02F022978A1F1300412
:10208000092C09D800EB800002EB400008446D1CCD
:10209000F3E758F8040B6D1C2A78002ADDD0632A78
:1020A00007D0732A0FD0104651464A4690477F1CEE
:1020B0002AE018F8042B8DF8002000218DF801107B
:1020C0006E46012103E058F8046B4FF0FF315A07C8
:1020D0004FF0000401D409E0641C84420BDA8C4206
:1020E000FADB325D002AF7D105E0641C8C42FCDB90
:1020F000305D0028F9D1274404E016F8010B514661
:102100004A469047641EF8D26D1CA3E713B54FF002
:10211000FF33012269460248FFF7F9F900981CBD18
:10212000F00000200EB5FEF709FBFFF7BDFBFFF73F
:1021300055FAFFF73DFAFFF7E1FAFFF745FBFFF726
:1021400091FBFFF769FA0025009501950822694681
:1021500006480295FFF7C6F9054C20780128FCD106
:10216000694604A0FFF738FF2570F6E7F00000206D
:102170000000002025730A0001020203040506077F
:1021800008090A0B0C0D0E0F1010000000000000D3
:102190000000010203040607080900000000010214
:1021A00003040000C4210008000000201800000003
:1021B00018200008DC21000818000020A8050000F5
:1021C00028200008000000000100000010000000AE
:0C21D0000000000000127A000000000077
:0400000508000131BD
:00000001FF
